:020000021000EC
:1000000000000420D57302000D7402001557020091
:10001000117402002157020027570200000000005F
:1000200000000000000000000000000001020200CB
:1000300019740200000000009B020200AB020200E3
:1000400059B00200DD2602001F7402001F74020076
:100050001F7402001F7402001F7402001F7402004C
:100060001F7402001F7402001F7402001F7402003C
:100070001F740200EDB102001F740200F526020099
:100080001F7402001F7402001F7402001F7402001C
:100090001F7402001F7402001F7402001F7402000C
:1000A0001F7402001F7402001F7402001F740200FC
:1000B0001F74020061DD010000000000000000006C
:1000C0001F7402001F7402001F7402001F740200DC
:1000D0001F7402001F7402001F7402001F740200CC
:1000E0001F7402001F7402001F7402000000000051
:1000F000000000001F740200000000001F740200D6
:1001000010B5054C237833B9044B13B10448AFF351
:1001100000800123237010BDC013002000000000E8
:10012000A493080008B5034B1BB103490348AFF380
:10013000008008BD00000000C4130020A493080044
:10014000154B002B08BF134B9D46A3F5803A0021A9
:100150008B460F461348144A121A20F081FB0F4BAE
:10016000002B00D098470E4B002B00D09847002062
:10017000002104000D000D48002802D00C4816F0A4
:1001800065F81FF06BFE2000290012F0E9F816F068
:100190005AF800BF00000800000004200000000022
:1001A000BD220200C0130020782B03204D62020004
:1001B0000000000008B50A490A480DF07DFD4FF423
:1001C0007A52012107480DF0EFFC142105480DF08B
:1001D00075FD054A1368002BFCD0002008BD00BF48
:1001E00055020100B0850220E0570020F8B5134FFA
:1001F0001E463B780C46154623B9FFF7DBFFE0B9F6
:1002000001233B700E4B0F4F21012A010024944221
:100210000DDA08194542C5F30C05C0F30C0058BFB0
:10022000684237F8100023F814000134EFE74FF468
:1002300000723260069A00201360F8BDDC5700207F
:10024000DC130020DC170020014B1868704700BF4A
:10025000E057002038B50B4C0B49256823680B4844
:100260001B015A42C2F30C02C3F30C0358BF5342A2
:1002700010354FF4007201EB43010DF06BFC25606B
:1002800038BD00BFE0570020DC170020B0850220F9
:100290002DE9F041264E9846337807460D46144620
:1002A0008BB901210D200FF03FFF012116200FF027
:1002B0003BFF012117200FF037FF012118200FF01D
:1002C00033FF01233370012116200FF071FF01214C
:1002D00017200FF06DFF012118200FF069FFA4B166
:1002E00043462A461349384600F084FF2B786F2B8B
:1002F00004D1002118200FF05BFF12E0742B04D111
:100300006B78772BF5D0682BF3D00B4B1C6801343E
:100310001C6014F0010407D001210D200FF048FFEC
:1003200000242046BDE8F08121460D20E3E700BF10
:10033000E45700208C4E0300E85700202DE9F041DF
:100340001B4E337807460C4615466BB90121162023
:100350000FF0EAFE012117200FF0E6FE0121182020
:100360000FF0E2FE01233370012117200FF020FF70
:10037000012116200FF01CFF012118200FF018FF9B
:10038000AC420FDD002117200FF012FF01211620D3
:100390000FF00EFF2B46224638460649BDE8F041D5
:1003A00000F028BF012117200FF002FF0021EEE727
:1003B000E4570020A14E0300F0B5ADF5C64D83B063
:1003C0000DF5C6432033184E1D683378074693B9A0
:1003D00001240094052304220321144800F01EFE8A
:1003E00040B91349384600F005FF20460DF5C64DCB
:1003F00003B0F0BD347002A90C4800F085FD0DF586
:10040000845108310023EC182822885C013280389E
:10041000882A04F8010BF8D16033B3F5105F01F1BD
:10042000B001F0D10020E1E7EC5700201885022050
:10043000C64E0300012303720023C0E900121946CF
:1004400002689A4203DD4268D1540133F8E77047ED
:10045000704700002DE9F0470F460168B1F5F56FD0
:1004600086B0064608D00A4638494FF4F563384648
:1004700000F0C0FE012054E0142193FBF1F4037A54
:10048000002B46D0384600F065F8002849D130727C
:1004900031220E9BD2F131051A6017D0282303FBBD
:1004A00002FE03FB05F00023716801EB030C283109
:1004B0001944ACEB030818F90E800CF8018B8C453D
:1004C000F7D1283383420EF1280EEDD1002A27DD23
:1004D000303C4FF028082C44142308FB05F85C43FB
:1004E0004FF000090DF10C0A302D19DC1E22CDF859
:1004F00000A004AB24EAE4713846CDE90399FFF784
:1005000075FE049AB2F5007F0EDA4FF400731049BD
:10051000ADE792FBF1F2A21A312AA8BF3122B8E767
:10052000002006B0BDE8F08705AB0193736803991E
:10053000434400933846282300F052F808F1280875
:1005400014340028EDD10135CEE700BFE34E03009F
:10055000144F030030B51E2291B01423CDE90023BF
:100560000A23069328230293134B0493134B0393FC
:10057000134B0793134B0893134B0993134B0B9394
:10058000134B0C93012415230546CDE90D344FF48C
:100590007A5206230F490A9468460F9301F068FDCA
:1005A00030B90D49284600F025FE204611B030BD77
:1005B0000A4B00201C70F9E70000FA420060EA458F
:1005C000CDCCCC3C8FC2753DCDCC4C3D3333733F4D
:1005D0000000A042F05700203A4F03000402002020
:1005E00030B5154885B013460278089CEAB1002260
:1005F0000270099A009202A80A46104901F0DEFC36
:10060000DDE90205002240F29A21954210D030F82F
:1006100012301B0203F24D1393FBF1F3803B7F2B4F
:10062000A8BF7F23A3540132EFE701F5A071E0E7F3
:10063000002005B030BD00BF04020020F0570020AC
:1006400070470022C0E900228260704703685B693E
:10065000184703689B691847202930B50ED0D0F899
:10066000C44000239C4209D05A018518AD698D42CF
:1006700002D10432104430BD0133F3E70020FAE721
:10068000704730B5D0F8E84000F1C80200239C4222
:1006900009D012F8015B8D4203D1343350F82300A6
:1006A00030BD0133F3E70020FAE72DE9F041D0F83F
:1006B000C4700446884605460026B7420FD0AB6991
:1006C000202B09D14146E86920F03EFB20B904EB1C
:1006D00046100430BDE8F08101362035EDE70020FA
:1006E000F8E710B5F021044615F0E0FF204610BDF4
:1006F00010B50421044615F0D9FF204610BD03684B
:10070000C31A1A88042A03D99B880BB1C0587047B2
:1007100000207047F0B587B0FFF796FD06AB0022CA
:1007200043F8082D354E009305460346344F3548AF
:100730003A6831680068FFF78DFE344628B13249C7
:10074000306800F057FD07B0F0BD049B3D60002B02
:10075000F9D02E4B2E491B6842561A540130B0F581
:10076000F56FF9D12B4B186803F0A2FC10B12A49A0
:100770002068E6E70DF10F03019305900DF10E03DC
:100780008DF80E008DF80F002449254800932A4665
:1007900005AB0968006800F05FFA08B12149E7E796
:1007A0009DF90E309DF80F2005992068FFF770FD28
:1007B0000028C8D01C4B1B685B6800936022012393
:1007C00011462068FFF7F8FD18B11849206800F0BD
:1007D00011FD174B186803F06BFC18B11549206820
:1007E00000F008FD144B20681B685B6893F900203B
:1007F00093F90110FFF7A2FDA5E700BFA058002064
:100800009C5800205460002023AA03005860002058
:10081000A45800204C6000203DAA030090580020FE
:10082000945800204BAA0300646000207CAA0300B7
:100830005060002092AA03009858002020292DE93A
:10084000F843054688461446994609D1D0F8EC008D
:1008500010B90120BDE8F8831F4900F0CBFCF8E790
:1008600003685B699847074640B1D5F8EC0000285B
:10087000EFD04246194900F0BDFCEAE7D5F8C4C004
:10088000BCF1050F09D9D5F8EC000028E1D006230A
:100890004246134900F0AEFCDBE70FCC05EB4C1EE3
:1008A0000EF104060FC694E80F0086E80F000CF165
:1008B0000103CEF81880C5F8C430D5F8E830EA183E
:1008C000384682F8C88003F13402013345F822909B
:1008D000C5F8E830BEE700BF4CA9030091A90300AA
:1008E000E0A903002DE9F0439B4C2378BFF35B8F15
:1008F000DD078BB00BD4204615F0B6FC38B120468E
:1009000015F0D4FC954A9649964815F09AFC964DF8
:10091000944A96482A604FF4083102F011FB944B38
:10092000944E0746186818443060FFF7E8FE032825
:1009300002462C46B04607D08F492868032300F0B2
:1009400059FC0BB0BDE8F083DFF8B0928B4E99F8FC
:100950000050BFF35B8F15F0010511D1484615F02B
:1009600083FC68B1864B33604846C6F8C450C6E97C
:100970003A5515F09BFC794A8249304615F061FCE6
:1009800002A807F043F8804B7C48804E02AA012160
:10099000FFF754FF02A805F0A3F87D4B774802AAA1
:1009A0000321FFF74BFF02A805F06EFD794B73485A
:1009B00002AA0421FFF742FF02A804F04DF9764B8A
:1009C0006E4802AA1621FFF739FF02A807F09EFA27
:1009D000724B6A4802AA1921FFF730FF02A806F0FD
:1009E00007FC6F4B654802AA0921FFF727FF337800
:1009F000BFF35B8F13F0010515D1304615F034FCC1
:100A000088B10195236800935C4AD8F800106548C6
:100A10003B4603F08FF9304615F048FC4F4A6249D7
:100A2000604815F00EFC614D5E48286003F0ACFA9A
:100A3000064620B15E49206800F0DCFB81E70146F4
:100A40002868DFF8BC8103F005FA5A4B314618607C
:100A5000286803F03DFA584B1860584B1868184442
:100A6000C8F80000FFF74BFE0328024603D003231B
:100A70004149206863E7524E3378BFF35B8F13F030
:100A8000010515D1304615F0EFFB88B101952368BB
:100A900000933A4AD8F800104A483B4603F04AF916
:100AA000304615F003FC2D4A3F49464815F0C9FB76
:100AB000454D4448286003F067FA06460028B9D13E
:100AC00001462868414F03F0C5F93146386028686F
:100AD0003F4D03F0FDF93F4B18603B685A683E4BB1
:100AE0001A602B78BFF35B8FD80711D4284615F016
:100AF000BBFB68B1394A3A484FF4F561FFF79AFCFD
:100B0000284615F0D3FB154A3649354815F099FBB0
:100B1000354B334A354D1A602B78BFF35B8FD907BD
:100B200012D4284615F0A0FB70B140F2DC5303222A
:100B3000CDE900322E48216896234FF47A7200F0F6
:100B400067F8284615F0B2FB2A4B294A1A602A4B4F
:100B500000221A60F5E600BF805800200002002045
:100B6000410601001C020020A05800206C600020FB
:100B700008AB030068600020A1AA03006C8002207B
:100B80002CA9030081060100951601008858002059
:100B900011140100E514010045130100791701004B
:100BA000C1150100748402204D3F010050600020F7
:100BB000E8AA03006460002098580020744F0300E6
:100BC00084580020DC8302204C6000205C60002000
:100BD0008C5800209058002058600020A458002015
:100BE0000C85022051040100546000207C58002034
:100BF0005C810220945800209C58002078580020E6
:100C0000606000200022C0E90022027270470000EC
:100C100070B50372049BC360059BC0E90012C0E974
:100C20000431044600F1180500F51C7628460C3501
:100C3000FFF7E8FFAE42F9D10023C4F87032C4F8E0
:100C40007432044BC4F878324FF00043C4F87C325D
:100C5000204670BD594F03002DE9F04F04468868C7
:100C60000668022E9A468DB09046836804D1456886
:100C7000012D01D1052B09D0009605227E4920685F
:100C800000F0B8FA01200DB0BDE8F08F0B78092B09
:100C900005D01A467949206800F0ACFAF2E7D4F89A
:100CA000740260B1D4F870320C2606FB03439B69D2
:100CB000934204DD7249206800F09CFAE2E70CAD33
:100CC0004E6845F8148D0023EA18F15C1171013368
:100CD000052BF9D1312821DD6A49606900F08AFAD3
:100CE0006368A8EB0309684B4FF00C0BD4F87072E3
:100CF000D4F874620BFB0742D2F818C00EB1E1457C
:100D000021DC2369B34234DDD4F87832CAF80030EC
:100D1000169B00201870179B1870B4E7431CC4F88A
:100D20007432D4F8703218443128C8BF32380C23DA
:100D30002A4603FB004303CA03F118069861D961F0
:100D400013783372CCE7002E09DC194660690393EF
:100D500000F050FA2846FFF755FF039BC6E701371E
:100D6000312FC8BF0027013EC4F87072C4F8746206
:100D7000BCE74046C117B8EB0C004FF0040361EB31
:100D8000EC71626892FBF3F2D317904271EB0303AC
:100D9000BADB0023A7F1320E4FF00C090DF1100C55
:100DA000B3421CDAFA18312AC8BF0EEB030209FB62
:100DB0000242183207CA8CE8070000220CEB02013D
:100DC00091F90410803133B945F822100132052A17
:100DD000F4D10133E4E755F822000144F4E74FF081
:100DE0000009F71755F8290032463B46C1171BF09A
:100DF0000BFE45F8290009F10109B9F1050FF1D100
:100E000000231E461A4655F82310B142C8BF1A46A1
:100E100003F10103C8BF0E46052BF4D11B4BD4F8D8
:100E2000781253F822501B6899421FD0D4F87C22C4
:100E3000B2F1004F1AD0A8EB0202D317207AB042C9
:100E400018DAA94205D1E068C117904271EB03039B
:100E500010DAC4F87852C4F87C820123179A137010
:100E6000169BCAF8005000201E700CE76FF000427D
:100E70000023E3E70023F1E7204108008441080054
:100E8000C6410800404208007442080008020020E1
:100E9000044B10B504460360406C08B10CF0D8FD5B
:100EA000204610BDC842080010B50446FFF7F0FF09
:100EB0002046682115F0FAFB204610BD104A70B597
:100EC000802102600022C0E91812426408210F222A
:100ED0000346C0E901120E2009220A4DC3E90302AC
:100EE00003F1140405F120062A4603CAB242206029
:100EF0006160154604F10804F6D1184670BD00BFC4
:100F0000C8420800A0420800F0B572B6436BC56B3A
:100F1000D0E912425D4323681342FCD0236813409A
:100F2000FCD11C4E43F60377826B9A4230DDD0E948
:100F300014C2DCF800401442FBD00024AC421FDA9B
:100F4000D0E916E2DEF800C01CEA020FFAD1D6F8AA
:100F5000102514F0010F07EA920242EA921204D01F
:100F600090F840C0BCF1000F01D10A700131D0E906
:100F700016E2DEF800C01CEA020FFAD00134DDE709
:100F8000D0E914C2DCF800401442FBD10133CBE7B6
:100F900062B6F0BD0003005038B50A4C007C012554
:100FA0004FF00043C4F81055C4F814350023C4F8BA
:100FB00004350FF031F8C4F86005C4F80055256019
:100FC00038BD00BF0050024010B5054C2046FFF769
:100FD00075FF2046034A0449BDE8104015F031B9B9
:100FE0001885022000020020910E0100094B012209
:100FF00010B5002104465A60007C0FF095F80648B1
:101000000DF004F8606C18B1BDE810400CF020BD84
:1010100010BD00BF00500240208602202DE9F04F95
:10102000044687B0884617469946042913D8DFE856
:1010300001F00314191C20004FF4207343634FF494
:10104000F073A36300239F4284F8403003DB022F38
:1010500013DD042F1FD00025B2E04FF4B07363639B
:10106000F023EEE74FF4A073F9E7B0234363902336
:10107000E7E7A02343637823E3E70223E36329F050
:101080000405012DE7D10CF0DFFC606450B9204667
:10109000FFF7ACFFDFE70222E263012284F8402081
:1010A0001F46ECE7002120790FF03EF80021207A5E
:1010B0000FF03AF80021207B0FF036F82946207C0B
:1010C0000FF032F804F1140604F1340A56F8040B58
:1010D0000021C0B20FF028F85645F7D12079DFF88B
:1010E000ECA0DFF8ECB00EF097FF1F30C0B23E2846
:1010F00094BF50465846A06420790EF08DFF4342BD
:1011000003F01F034FF0010600F01F0058BF5842C4
:1011100006FA00F0E064207A0EF07EFF1F30C0B2C5
:101120003E2894BF504658462065207A0EF074FF42
:10113000434203F01F0300F01F0058BF584206FA55
:1011400000F06065207B0EF067FF1F30C0B23E28C4
:1011500094BF50465846A065207B0EF05DFF434289
:1011600003F01F0300F01F0058BF584206FA00F0BA
:10117000E0652046FFF710FF13480CF008FF4FF41E
:101180007A700EF075FF606C0CF084FB00287FF421
:101190007EAF1023CDE9010600931099606C4346A1
:1011A0003A460CF059FC3146606C0CF0AFFB00285D
:1011B0007FF46DAF04A9606CCDE904690CF040FBCD
:1011C000284607B0BDE8F08F2086022010050050A9
:1011D0001008005001308000704700000D289ABFB1
:1011E000024B53F820000248704700BFD04208006D
:1011F000084308000EB403B503AA036852F8041BA1
:1012000001929B68984702B05DF804EB03B0704709
:101210000CB407B504AA036852F8041B01929B683A
:10122000984703B05DF804EB02B0704700680368AC
:101230005B6818470138C0B204289ABF014B185C9C
:10124000002070476E43080020B101280CBF022027
:10125000002070470120704738B515461A4628B956
:101260000B492846FFF7C6FF012038BD0468082C4B
:1012700009D8043900EB8404A04206D050F8043F9A
:1012800041F8043FF8E70349EBE70020EDE700BF32
:10129000204408004E4408000368C01A03888B42AB
:1012A0008CBF405A0020704710B50C210446FFF750
:1012B000F3FF231808B12058184410BD08B50346A1
:1012C00010460C2B24D8DFE803F00B071113171B73
:1012D0001D0F1F150D2119000A230B70002008BDDA
:1012E0000123FAE70B23F8E70723F6E70223F4E7E5
:1012F0000323F2E70923F0E70423EEE70D23ECE7ED
:101300000523EAE70623E8E70823E6E70C23E4E7FA
:1013100000220A701A460249FFF76CFF0120DEE73F
:101320008F44080038B505461446FFF7B5FF00B1F5
:101330002C5C204638BD08B500220A21FFF7F2FFD9
:1013400008BD00002DE9FF411F46136815460646FB
:1013500088461B680422242128469847044618B171
:10136000242200211FF07CFACDE90254A4B91B4BC2
:1013700001934FF4BE630093194A1A4B414640460D
:10138000FFF746FF0124039911B102A8FFF74EFFB2
:10139000204604B0BDE8F0813046FFF7CCFF1128AD
:1013A00017D13046FFF780FF054690B10421FFF7C3
:1013B00073FF2E1868B12D5870190AD021460A4BB8
:1013C0004246FFF749FF04460028DCD1039B7259CF
:1013D0001A62039B3B6000240394D4E70644080090
:1013E000EF430800734308001844080038B5054669
:1013F0001446FFF751FF00B12C58204638BD38B5D0
:1014000005461446FFF748FF00B12C56204638BD6C
:101410002DE9FF4198461368154607460E461B689E
:101420000422182128469847044618B118220021A2
:101430001FF016FACDE90254A4B9274B019340F2EC
:1014400002430093254A264B31463046FFF7E0FE23
:101450000124039911B102A8FFF7E8FE204604B069
:10146000BDE8F0813846FFF766FF012806462DD11A
:101470003846FFF719FF054640B300220421FFF765
:10148000BEFFC0B2FFF7E0FE002220700621284612
:10149000FFF7ACFF0022606008212846FFF7A6FF97
:1014A00000220A21A0602846FFF7A9FFC0B2FFF77B
:1014B000C1FE324620730C212846FFF797FF3246C3
:1014C00020610E212846FFF791FF60610023C8F8D4
:1014D000004003931C46BCE706440800EF430800A5
:1014E000734308002DE9FF411F4613681546064661
:1014F00088461B6804221C2128469847044618B1D8
:101500001C2200211FF0ACF9CDE90254A4B9294BEB
:10151000019340F22C430093274A284B4146404612
:10152000FFF776FE0124039911B102A8FFF77EFEB2
:10153000204604B0BDE8F0813046FFF7FCFE0228EB
:1015400033D13046FFF7B0FE054670B300220421C8
:10155000FFF755FFC0B2FFF777FE0022207006218B
:101560002846FFF743FF0022606008212846FFF766
:101570003DFF0022A0600A212846FFF737FF002226
:101580000C21E0602846FFF73AFFC0B2FFF752FE99
:10159000012220740E212846FFF728FF01226061F6
:1015A00010212846FFF722FFA06100233C6003932F
:1015B0001C46B8E706440800EF43080073430800E0
:1015C0002DE9F04398461368154685B081460E46CE
:1015D0001B680122042128469847044608B10023CD
:1015E0000360CDE90254A4B9264B019340F297431E
:1015F0000093254A254B31463046FFF709FE01246A
:10160000039911B102A8FFF711FE204605B0BDE80D
:10161000F0834846FFF78FFE082807462CD148463E
:10162000FFF742FE054638B300220421FFF7E7FE2C
:10163000C0B2FFF7FFFD0022207039462846FFF7B1
:1016400071FE003018BF0120A07000220A21284638
:10165000FFF768FE003018BF0120E070002206216D
:101660002846FFF7CCFE30B1012804D008493046A7
:10167000FFF7C0FDC3E760700023C8F80040039384
:101680001C46BDE706440800EF430800734308000A
:10169000B34408002DE9FF411F461368154606466E
:1016A00088461B680422282128469847044618B11A
:1016B000282200211FF0D4F8CDE90254A4B9264B0A
:1016C000019340F28E530093244A254B41464046F5
:1016D000FFF79EFD0124039911B102A8FFF7A6FDB3
:1016E000204604B0BDE8F0813046FFF724FE05280F
:1016F0002DD13046FFF7D8FD054640B30022042126
:10170000FFF77DFEC0B2FFF79FFD0022207006218B
:101710002846FFF76BFE0022606008212846FFF78D
:1017200065FE0022A0600A212846FFF75FFE002226
:10173000E0600C212846FFF759FE002220610E21AF
:101740002846FFF75CFEC0B2FFF774FD207500234A
:101750003C6003931C46BEE706440800EF430800C4
:101760007343080038B504461546FFF795FD08B1E8
:1017700004442568284638BD2DE9FF411F461368FB
:1017800015460422064688461B6811462846984797
:10179000044608B100230360CDE90254A4B9144BF8
:1017A000019340F279630093124A134B414640463D
:1017B000FFF72EFD0124039911B102A8FFF736FDB2
:1017C000204604B0BDE8F0813046FFF7B4FD09289B
:1017D00008D13046FFF768FD20B100220421FFF751
:1017E000C1FF206000233C6003931C46E3E700BF79
:1017F00006440800EF430800734308002DE9F8434E
:10180000984605460023C8F8003091460F460BF075
:1018100082FF2B68EB1A06461A88082A0CD9198908
:1018200051B16C58832E09D932461C494846FFF7FE
:10183000E1FC0120BDE8F8830124F3E7202E11D05C
:101840003B6822461B68314638469847C8F8000076
:1018500008BB134A134952F8262023464846FFF78F
:10186000C9FCE6E7062A05D9DB88E91813B1EB586D
:10187000C91804D10C494846FFF7BCFCD9E73B68BE
:1018800022465B68043138469847C8F80000B0FA31
:1018900080F04009CEE70020CCE700BFF446080006
:1018A000E044080048470800EA470800F0B4D0E9DF
:1018B00002570E4601680023BB4206D10022AB420C
:1018C0000AD221F813200133F9E736F81340944087
:1018D00021F813400133EFE742680069F0BC0BF0D8
:1018E00075BE7047826810B504465200002100683A
:1018F0001EF0B6FFA2686068520801329200002113
:10190000BDE810401EF0ACBF01232DE9F3410546B0
:10191000C1608360D5F8088088454FEA480001D24D
:10192000A860F7E71EF04CFB0446286048B9254B39
:1019300025481B68D9681DF0D5FD204602B0BDE8DA
:10194000F08128F00100023080001EF039FB0446CF
:10195000686020B91B4B1D481B68D968EBE702AFD4
:10196000002647F8046D32463B46314640460BF0B0
:1019700093FD044638B1134B15481B68D9681DF018
:10198000B1FD3446D9E7DDF8048040461EF018FB6F
:101990000646286120B90B4B0E481B68D968EEE754
:1019A0003B460246C5F814802146A8680BF074FD3A
:1019B0002B69834204D0034B07481B68D968BAE7F8
:1019C0000124BAE7A8090020434D0800654D08002E
:1019D000884D0800A44D0800C84D080030B5D0E976
:1019E00001356FF003009C0000FB034021440244DA
:1019F000AB4201F1040100DB30BD31F9024C31F999
:101A0000040C644300FB004042F823000133EFE77D
:101A10002DE9F04F87B0036A0193D0E903CE436903
:101A2000039303680293059100234FF000084FF0E1
:101A30000009029A9A4202DA07B0BDE8F08F059ACF
:101A40003CF913503EF9134002EB850582696700AB
:101A500002EB070A039AC46932F9132004923C444A
:101A600046464F4600224FF000084FF00009049907
:101A70008A4207DB019C31463A46E4E80212013310
:101A80000194D6E73AF912B055F82210CBFB016762
:101A900034F912B00132CBFB0189E8E72DE9F74FA9
:101AA0000368006A01938A4600F1080E00214FF096
:101AB000010C019B994202DB03B0BDE8F08FFEE808
:101AC00002454FF00009A84658EA09032AD12346E7
:101AD00034B3B4FA84F242F00102C2F11F020CFAEC
:101AE00002F5521001324C4612F1FF320DD29C42E7
:101AF00004D24FF6FF739C4218BF0134A2B222FAFF
:101B00000AF240F821200131D3E704EB050898459B
:101B10004FEA54049CBF6419A3EB0803AD08E3E744
:101B20002246ECE725B3B5FA85FB4BF0010BCBF170
:101B30003F0BABF12002CBF120030CFA02F72CFA99
:101B400003F30CFA0BF64FEA6B0B1F430BF1010B7F
:101B5000002200231BF1FF3B0FD2AB4208BFA24281
:101B6000CDD2002B08BFB2F1FF3FC8D00132C6E78B
:101B7000B4FA84FB0BF1200BD7E712EB060843EB1A
:101B800007095B084FEA32024D4508BF444505D3BB
:101B9000B4EB080465EB090592197B414FEA9608FE
:101BA00048EA87784FEA970946464F46D2E70268E7
:101BB000006A0132D20000211EF052BE0000000077
:101BC00008B510EE100A1AF07FFB00220A4B1AF03B
:101BD000FDFC1BF021FA06A3D3E900231AF0CCFB8D
:101BE0001AF0C2FE00EE100A08BD00BFAFF300807D
:101BF00000000000009C914000E085402DE9F04F7E
:101C00002DED068B09EE103A03680B60013389B0A5
:101C10004FEA4308824640460C46154601931EF0A3
:101C2000CFF9E060039040461EF0CAF92061834678
:101C300040461EF0C5F9019B60618146D8001EF048
:101C4000BFF9019B206298001EF0BAF90646404693
:101C50001EF0B6F9074640461EF0B2F9039B02900B
:101C600043B1BBF1000F05D0B9F1000F02D00EB1A6
:101C700007B1A0B930461EF0ABF938461EF0A8F9FE
:101C800002981EF0A5F9C04BC0481B68D9681DF02A
:101C900029FC002009B0BDEC068BBDE8F08F9AED61
:101CA000020ADAED018AB5EEC00AF1EE10FA05DAA1
:101CB000B74BB84A2521B8481DF000F9B4EEE80A40
:101CC000F1EE10FA03D4B54BB24A2621F3E7FFF741
:101CD00077FFB0EE408AB0EE680AFFF771FFDDEDE6
:101CE000017A30EE480AB8EEE77AB346C0EE077ADA
:101CF00032460023019999424FDC28461AF0D2FA65
:101D00000022A74B1AF038FBF8EEC97AB7EE007A3A
:101D100077EEC77A804617EE900A89461AF0D4FA11
:101D200002460B46404649461AF050FC1AF01CFE8B
:101D3000DAED027A08EE900AC7EEA87A0025A946E5
:101D400017EE900A1AF0C0FA0022964B1AF05EF9CC
:101D50001AF0C2FDA560804660600395019B9D421C
:101D60005CDB022148461DF0C7F80221A061054650
:101D700048461DF0C1F8E0610DB1002870D1304631
:101D80001EF026F938461EF023F902981EF020F9BD
:101D90007D4B85481B68D96879E7013307EE103A17
:101DA000B8EEC77AF0EE486AE7EE876AE2EC016ABD
:101DB000A0E7013107EE901AB8EEE70A049120EE91
:101DC000280AFFF7FDFEDBED007A0499B4EEE70A7E
:101DD000F1EE10FAEDD9D4E903E2029B27F8158061
:101DE000A1EB080023F81500D4F814C002EB45035A
:101DF000E0B92EF8150022F815004FF004002CF879
:101E00001500039828B99A420AD1012309F104095F
:101E1000039301350BF1040B88469FE74146C9E760
:101E2000B2F90000043022F8020BECE708F00103DD
:101E3000B8F1000FB8BF5B420344013B042093FBA1
:101E4000F0F301339B00022098FBF0F84FEA4808BA
:101E50002EF8158022F815902CF815309944D8E703
:101E60009AED020AFFF7ACFEA6F10409F0EE40AAD3
:101E70000025019B9D4212DB30461EF0A9F8384632
:101E80001EF0A6F802981EF0A3F8A36819EE102A17
:101E9000934276DB3C4B45481B68D968F7E6029BCA
:101EA00037F915B033F915300393E36833F915307A
:101EB000ABEB03030593236933F915300493BDB1EC
:101EC000D9ED009A4FF000080BEB080300EE103A32
:101ED000039B98450FDBA268002BACBF5B440BF162
:101EE00000039342C8BFA360013509F10409C0E7AC
:101EF000F0EE6A9AE6E7B8EEC00A99ED018A20EEA4
:101F0000280AFFF75DFE38EE400A38EE698ADFEDF9
:101F1000287A80EE08AADDE9043203EB020AE369BD
:101F20000693C24408F101086AEE277A17EE900A78
:101F30001AF0CAF900221A4B1AF068F81AF0B8FF22
:101F4000A36907931AF0C8FC079B23F81A001AEE3E
:101F5000100A1AF0B9F902460B46002015491AF08A
:101F600053F80022144B1AF007FA0D4B00221AF016
:101F70004DF81AF09DFF1AF0AFFC069B23F81A00EB
:101F8000A2E7012086E600BFA8090020F44D080062
:101F9000184E0800444F0800364E0800BF4E080097
:101FA0000000E03F0000F83FED4E0800164F08002B
:101FB000000080450000F03F0000B0402DE9F041F6
:101FC0000C460646114620461A46069B00F0B8FA13
:101FD00020B9C6E900003046BDE8F081B4F91850D8
:101FE0006169B5FA85F5113D2A4604F11C00FFF739
:101FF0005DFCD4F8208004F134074246414638465F
:10200000FFF7ECFC41463846FFF702FD294638460B
:10201000FFF744FD0146054604F1580000F00EF9B3
:10202000E36E23B1294604F16C0000F0AEF9636A57
:10203000626BB3FA83F3C3F11903294604F18000FC
:1020400000F098F8636BC6E90003C4E710B50446D6
:1020500000F0B9FA04F11C00FFF744FC04F134006D
:10206000FFF7A5FD04F15800BDE8104000F01DB9D0
:102070002DE9F3410C4606461746002188222046EA
:102080001EF0EEFB3A462146304600F0B1FA054616
:1020900048B9314B31481B68D9681DF023FA2846EE
:1020A00002B0BDE8F08104F11C0821684046FFF74A
:1020B0002BFC054620B9284B29481B68D968ECE75A
:1020C0004046FFF70EFC636A5B0801333A4604F1B1
:1020D000340106F10800FFF791FD054620B91E4BBB
:1020E00020481B68D968D8E7626B04F1580106F1F3
:1020F000180000F0E1F8054620B9174B1A481B6894
:10210000D968CAE7636AA26EB3FA83F3C3F119030D
:102110000193B4F85830009304F16C01636B06F13D
:10212000280000F099F9054620B90B4B0F481B68B1
:10213000D968B2E704F1800106F1380000F078F8C0
:10214000054620B9044B0A481B68D968A5E7204614
:10215000FFF77CFF0125A2E7A80900205F4F0800D8
:10216000804F08009E4F0800C34F0800ED4F080045
:10217000195008002DE9F74F44682C4F01940026B0
:102180004BF2721CC3F1000E4FF6FF78964203DB50
:10219000084603B0BDE8F08F056851F82640002DD1
:1021A0003DD0002BB4BF24FA0EF49C40012C06D87D
:1021B000002434E0A5F1100944FA09F40FE0B4FA60
:1021C00084F5C5F11F054FF0010909FA05F90F2D36
:1021D000A4EB0904EEDCC5F1100904FA09F44FEA96
:1021E000642909F1010A37F819B037F81AA0A4EBED
:1021F0004929AAEB0B0A5C4409FB0AF904EB2949BB
:1022000009EB05494FF400440025ECFB0945240C7B
:1022100044EA0544019DAC4004F50044240C4445C7
:1022200028BF444621F816400136AFE74050080069
:1022300003680B6043684B60012070472DE9F04153
:10224000D0F80CC004390022944501DCBDE8F081CF
:10225000D307076954BF8688C68857F82240D0F84C
:1022600000E04B68C6F5804503FA0EF3A5FB044574
:10227000E6FB03454FEA943848EA854847F8228050
:10228000068951F8045F4345A6FB056794BFDB1A36
:10229000A3EB0803B50B45EA874523FA0EF3AB42DF
:1022A0002CBF0B600D600132CEE7C268006992005E
:1022B00000211EF0D5BA000090ED027ADFED186A19
:1022C000D0ED037A27EE267A38B5BCEEC77A0D46F4
:1022D00017EE103A90ED017A0168EB8027EE267A2E
:1022E00067EEA67ABCEEC77AFCEEE77A17EE103AF4
:1022F000AB8017EE903A29602B81EA6004211046EA
:102300001CF0FAFD0446286138B9064B06481B68E4
:10231000D9681DF0E7F8204638BD0120FCE700BF72
:1023200000008046A809002044510800022830B56A
:1023300002D831F9100030BDB0FA80F3C3F12004A7
:10234000E2000C3A0A2C01EB0205D5BF153BC3F1A4
:1023500015039840D840AB88C0F3090013FB00F484
:10236000B5F902305B0103EB641358438B5E00F553
:10237000804003EBE03000B2DDE7B0F5005F39BF2D
:102380004043000D8009403870472DE9F041D0F8F6
:10239000088005460F460024A04501DCBDE8F08119
:1023A0006B68E96853F82400FFF7C0FF57F8243042
:1023B000A0FB03012B69C3F12006A3F1200201FA5F
:1023C00006F620FA03F3334321FA02F243EA02004D
:1023D000FFF7D3FF47F824000134DDE710B5C368E9
:1023E000012404FA03F307EE903A2DED028BB8EEC8
:1023F000678A07EE902A04FA01F1F8EE676A07EEA1
:10240000901AF8EE677A436886EEA77AD0ED027AE2
:1024100077EE277A83F0004117EE900A1BF05CF903
:1024200007EE900A9FED0B7A68EE277ABDEC028BDF
:10243000F4EEC77AF1EE10FADBBFB6EE007A77EE73
:10244000877A47F6FF70FDEEE77ADCBF17EE903A29
:1024500018B210BD00FEFF462DE9F74F0C4601688B
:102460000D9F21600646002963D0C4E90123FA20AC
:102470001DF0A6FD0546E06048B92F4B2F481B68AC
:10248000D9681DF02FF8284603B0BDE8F08FF36837
:10249000DB1B0C3B2361BDF83030DF1B00223946CB
:1024A0003046FFF79BFF0122288039463046E56819
:1024B000FFF794FFE36868800C3B0225E3604FF070
:1024C000120A2B4605F1FF390122202D02FA09F2EA
:1024D0003946304614BF03FA09F94FF0FF3901932A
:1024E00002EB5208FFF77AFF4246834639463046F0
:1024F000FFF774FF4A46804639463046FFF76EFFC5
:10250000E268019B22F835B0A0EB0B00A8EB0B08AA
:10251000C0EB880802EB0A01013522F80A80212D60
:10252000A0EB0808A1F802800AF1080ACAD10C320F
:10253000E2600120A8E700BFA8090020655108005B
:10254000F8B5044606680069351A95421F46E368E7
:1025500028BF15466A0003EB40001EF083F83D607B
:10256000236922681D44954225612AD30025D4F8A9
:1025700004C0E068D4F814E02946B1420DDBA1683C
:10258000521A520000EB41011EF006F92369A268BD
:1025900025839B1A23610120F8BD3CF8117030F8A7
:1025A000113013FB07F31B131FB2002FB8BF5B42A0
:1025B0002EF81170B8BF1FB2BD42B8BF3D46013101
:1025C000DBE70020E8E7026810B50446520000216E
:1025D000C0681EF045F922686069520000211EF0B3
:1025E0003FF900232361238310BD00000000000099
:1025F0002DE9F04F056843682DED028B0E465543DB
:102600004FF47A71B5FBF1F54FEA450A5A4383B0AE
:10261000B2FBF1F23560B26050461DF0D1FC0446C9
:10262000706058B93C4B3D481B68D9681CF05AFF94
:10263000204603B0BDEC028BBDE8F08F07EE905A48
:10264000F8EEE77ADFF8E4909FED358A17EE900A0E
:1026500019F03AFE02460B462DA1D1E9000119F00E
:10266000B5FF1AF081F9002783464FF00008AF420A
:102670000DD10023336150461DF0A2FC0446F060EA
:10268000002838D1244B27481B68D968CEE7384644
:1026900019F008FE42464B4619F0B8FCCDE900019E
:1026A000584619F011FE02460B46DDE9000119F00B
:1026B00063FE1AF0B3FB42464B4619F05DFE02463C
:1026C0000B464046494619F09FFC1AF04DF907EEBB
:1026D000900A67EE887A17EE900A19F0F5FD4246E7
:1026E0004B4619F093FC1AF0E3FB1AF0F5F824F8C6
:1026F00017000137BBE750461DF062FC04467061CD
:1027000020B9054B08481B68D9688FE701248FE77B
:10271000182D4454FB211940A809002082510800BB
:1027200000008045AA510800CB5108000000E03F9E
:10273000F8B515461C460022002306460F461AF03F
:1027400083F818B100232B602360F8BD2246304681
:1027500039461AF02DFC0022104B19F00DFE1AF02C
:102760007DFE1AF0B9F94FF000420023824273EB6C
:10277000010601DA1CF09AFB994201BF90422368DE
:1027800001332360236808BF4FF080401F33BEBF72
:102790000023002023602860D7E700BF0000E0414D
:1027A000F8B515461C460022084B06460F461AF09F
:1027B00073F808B91CF07AFB23462A46304639469E
:1027C000FFF7B6FF2368002BF4DBF8BD0000F03FF5
:1027D0002DE9F14F06460A989946C0F11F000123E2
:1027E00003FA00F00F46904619F05CFD424604469D
:1027F0000D464B463046394619F0BEFD02460B46A3
:102800002046294619F0B8FD0BA3D3E90023DDE9E2
:102810000BAB04460D461AF03FF810B106A5D5E9FA
:1028200000455B4652462046294601B0BDE8F04FC0
:10283000FFF7B6BFAFF300800000C0FFFFFFDF412E
:102840002DE9F8430124814604FA00F00138884656
:10285000154619F027FD0646A5EB09000F46C0F105
:102860002003A0F1200124FA03F304FA01F104FA91
:1028700000F0194319F052FD02460B463046394626
:1028800019F07AFDC8F120030F46A8F1200124FABF
:1028900003F304FA01F10646194304FA08F019F0AB
:1028A0003DFD02460B463046394619F08FFE1AF0C0
:1028B000FFFA1AF011F8BDE8F883836810B41BB969
:1028C000036D5DF8044B184703EB81105DF8044B72
:1028D0007047D0ED007AC0EE277A10B5044617EEA7
:1028E000900A19F0F1FC1AF0B9FD1AF03DF807EE64
:1028F000900AFDEEE77A636817EE900A184410BD5F
:10290000002804DB884202DA52F8200070474FF0BA
:10291000FF3070470B6810B51968044610461A1D41
:10292000FFF7EEFF011E04DB2046BDE81040FFF775
:10293000C4BF002010BD4B6810B51968044610468E
:102940001A1DFFF7DDFF011E04DB2046BDE8104025
:10295000FFF7B3BF002010BDFFF7DCBFD1ED037A56
:1029600092ED037A67EE877A73B5F5EEC07AF1EEF1
:1029700010FA1E460ADA0F4B009344690E4A0F49BB
:102980004FF4A173A047012002B070BD17EE900A6A
:1029900019F09AFC0446F0680D4619F095FC0B46B8
:1029A00002462946204619F011FE069BC3E90001A4
:1029B0000020E9E75D520800ED510800EF430800F0
:1029C0002DE9F74F0446C86890469A460D4619F01F
:1029D0007BFC0646D8F80C000F4619F075FC024641
:1029E0000B463046394619F0C7FCDDE90C9B06461C
:1029F0000F46BAF1000F1CD0DAF80C0019F064FC95
:102A000002460B463046394619F0FEFA0646D9F81A
:102A10000C0021F0004719F057FC02460B463046E7
:102A2000394619F0D3FD13A3D3E9002319F020FF91
:102A300050B14B46424629462046CDF830B003B04F
:102A4000BDE8F04FFFF78ABF074B0093204665694A
:102A5000064A074940F23513A847012003B0BDE8F4
:102A6000F08F00BFAFF3008076520800ED510800F0
:102A7000EF4308007B14AE47E17A943FF0B51F4660
:102A8000137885B0032B0A9E0ED0092B1FD0072B7D
:102A900021D0264B00934469254A264940F27513FC
:102AA000A047012005B0F0BDFF2400251369D268BE
:102AB00002920129039312D19FED1F0A02A8FFF78A
:102AC00008FF8542ACBF3D60386034601BE07F2466
:102AD0006FF07F05EAE747F6FF74184DE6E7032934
:102AE00013D19FED150A02A8FFF7F3FEB1EE080A15
:102AF0008542ACBF3D60386002A8FFF7EAFE844221
:102B0000D4BF346030600020CCE702290BD1BFEE87
:102B1000000A02A8FFF7DDFEB7EE000A8542ACBF4F
:102B20003D603860E8E73D60CFE700BF985208009D
:102B3000ED510800EF430800000000000080FFFF97
:102B40002DE9F04F91F830908FB0B9F1010F0446A4
:102B50000D4617469B46DDF880800FD001266D4B51
:102B60000193CDE902966C4B00934469D2236B4AE2
:102B70006B49A04701200FB0BDE8F08F92F830609C
:102B8000012E08D0634B0193CDE90269654B009398
:102B90004469D423EBE7526B3AB9634B0093446921
:102BA000DE235E4A6149A047E4E7D2F80090B9F11C
:102BB000000F04D15E4B00934469DF23F1E7D9F89D
:102BC00000A0BAF1010F35DD0B78092B06D0072BD9
:102BD00004D0584B00934469E423E2E73B78092B87
:102BE0000DD00922CDE90232534B0193534B009390
:102BF0006569E523494A4A492046A847BAE7D045CE
:102C000008D04F4B0193CDE902A84E4B0093656964
:102C1000E623EFE7BB68926803EB82035B689845A5
:102C200008D0CDE90283484B0193454B0093656979
:102C3000E923DFE7D5ED037A189BCDED057AD3EDD7
:102C4000037A09F10403CDED067A07930026B04517
:102C50002EDDBAF1010FC9BF079BD9F8040003EBC1
:102C60008603186819F030FBCDE90801059819F0C2
:102C70002BFB02460B46DDE9080119F07DFBCDE98F
:102C80000801069819F020FB02460B46DDE9080111
:102C900019F09CFC0CAB0BAAFFF74AFD1E9A0B9B8C
:102CA00042F826301F9A0C9B42F826300136CEE7B8
:102CB0002B78032B1AD10EAB0020002163E902010F
:102CC0000193189B00933A465B4629462046FFF73E
:102CD00077FE00287FF44FAF0BAB1A9ADDE90C01A9
:102CE000FFF726FD0B9B1B9A5B4213602B78092B89
:102CF00003D003F0FB03032B09D1199B189A197811
:102D00001D9B009320461C9BFFF7B8FE33E7002075
:102D100031E700BFB8520800D2520800ED51080058
:102D20009E520800EB52080005530800EF430800CC
:102D300019530800345308006E5308007A530800F2
:102D40008753080094530800B55308004B1E1844DD
:102D5000B0FBF1F048437047B0FBF1F048437047D7
:102D600001380844B0FBF1F04843704701380C28A3
:102D700014D8DFE800F007070D0F130D0B0F0D132C
:102D800013110F0004230B60002070470223FAE7A1
:102D90000123F8E70823F6E71023F4E70120704742
:102DA0002DE9F3410D460168411A16460A88042AA6
:102DB0002ED98C8800EB040C8CB104591CEB040751
:102DC0000DD05CF804804FF0000C0124C44507D0FE
:102DD00057F804EF0CF1010C0EFB04F4F6E70124A4
:102DE000062A16D9C988B1B140561A460DF1070115
:102DF000C0B2FEF763FA40B931469DF80700FFF70D
:102E0000B5FF10B933685C432C6002B0BDE8F081B7
:102E100001240020E9E70846E7E7436873B50C465C
:102E200053B153F8046B002101228E4205DD53F8A3
:102E3000045B01316A43F8E7012201A9007AFFF738
:102E400095FF10B9019B5A43226002B070BD4068E3
:102E50000368DB68184770477047406803681022B2
:102E6000DB681847406803685B6918474068036877
:102E70000422DB6840211847704710B5182104462A
:102E800013F014FC204610BD10B50821044613F0C1
:102E90000DFC204610BD036910B50C46114633B138
:102EA000406803680422DB6889009847206000209E
:102EB00010BD10B508210446FEF7EEF9231808B13D
:102EC0002058184410BD10B50A210446FEF7E4F955
:102ED000231808B12058184410BD10B50621044627
:102EE000FEF7DAF900B12056C0B210BD10B50E21C0
:102EF0000446FEF7D1F900B1205C003018BF012074
:102F000010BD10B504210446FEF7C6F9231808B118
:102F10002058184410BD000038B503680D46DB6822
:102F2000042218210446984738B1044B8560C0E953
:102F300000340023C0E90433037338BD145A080079
:102F400070B50E46102115460446FFF7FFFEA21984
:102F50000146121A284601F005FB2946BDE87040DB
:102F6000FFF7DABF38B50C46054608212046FEF7C4
:102F700093F9211870B122588B188A58012A05D06C
:102F80000549A868FEF736F9002038BD181D5B68B2
:102F90001844FAE70368FFDE3E5408002DE9F341C8
:102FA0001F46037B0446884616463BB91349806892
:102FB000FEF720F9012002B0BDE8F081FFF7D2FF53
:102FC000236822695B6B05463946204698470028EE
:102FD000F1D13A68236800921F6B2A463346414676
:102FE0002046B8470028E6D1236832465B6A294666
:102FF000204698470028DED12073DCE7BC54080047
:103000002DE9F74F04461F4689461646FFF7AAFFEB
:10301000236883469D6A32463B46494620464FF028
:103020000008A847CDE9007823680546D3F82CA00E
:103030005A46034649462046D04740B10749A06852
:10304000FEF7D8F84546284603B0BDE8F08F002EBD
:10305000F9D00C237B43F3586B60F4E7E557080085
:103060002DE9F347054689461F461646FFF77AFFC6
:1030700082466868036804221B6940219847012240
:10308000CDE900722B680446D3F82C8052460346E3
:1030900049462846C04740B10749A868FEF7AAF844
:1030A0000024204602B0BDE8F087002EF9D00C23A2
:1030B0007B43F3586360F4E7CF56080000230361B5
:1030C0004068036804229B68602118472DE9F04797
:1030D0001F46037BDDF8209005460E4690460124EE
:1030E00033B113498068FEF785F82046BDE8F087C4
:1030F0000473FFF7E3FF0028F8D12B684A461B6AE8
:103100003146284698470028F0D12B683A469B69FB
:103110003146284698470028E8D12B68DC693B688F
:10312000424631462846A446BDE8F047604700BF06
:103130006754080008B5406801F038FA0421BDE87A
:103140000840FFF703BE00002DE9F0410446884621
:103150001746FFF7EFFF002325691E469D4207D063
:1031600000EBC30201335268013208BF0136F5E7B4
:103170000B2E07D90C220A49A068FEF73BF8012064
:10318000BDE8F08100EBC5034FF0FF3240F8358019
:103190005A603D602369013323610020F0E700BFDE
:1031A00079570800036870B59B6804460D46984738
:1031B0002046FFF7BFFF21690022914206D04368F5
:1031C000013308BF456001320830F6E760680368E4
:1031D0000C319B680422C900BDE87040184700000C
:1031E00008B50368994206D3054B064A06484FF4D2
:1031F00083711BF063FE00EBC100D0E9010108BD43
:1032000066590800005E08007159080008B5036897
:10321000994206D3054B064A06484FF483711BF0CA
:103220004DFE00EB8100406808BD00BF66590800F4
:10323000325D08007159080008B50368994206D349
:10324000064B074A07484FF483711BF037FE0430E2
:1032500000EB810250F82100104408BD66590800B7
:10326000425B0800715908002DE9F743054688467E
:10327000164600244FF00C094046FFF742FE036853
:103280009C421FD22146FFF7D7FFFFF72FFEB8B1B0
:1032900009FB04F701A9F019FFF7BFFD68B96868D9
:1032A000019903681022DB689847F05140B9019AF0
:1032B0000549A868FDF79EFF012003B0BDE8F08333
:1032C0000134D9E70020F8E71054080008B5036876
:1032D000994206D3064B074A07484FF483711BF007
:1032E000EDFD043000EB810250F82100104408BDD0
:1032F00066590800385C08007159080008B5036871
:10330000994206D3064B074A07484FF483711BF0D6
:10331000D5FD043000EB810250F82100104408BDB7
:10332000665908004C5A08007159080010B5044647
:10333000FDF7B2FF231808B12058184410BD38B566
:103340000C4608210546FDF7A7FF68B1295820461D
:10335000FFF7D4FF034648B10421FFF7E7FF10B1A0
:1033600003681BB1043038BD0146F0E71846FAE7A0
:1033700010B50446FDF790FF231808B120581844F3
:1033800010BD00002DE9F7430B9C904605464022F6
:103390000E46204600211F461DF062FA4046FFF708
:1033A0009CFD0A9A2146FDF789FF002854D140462A
:1033B000FFF79CFD394684F82D004046FFF7BFFF1C
:1033C000606000284BD10223237501AA0A9B04F1F7
:1033D00018014046FFF7E4FC00283DD10421404697
:1033E000FFF7C6FF00283CD13E4BA3600C214046AE
:1033F000FDF752FF08EB000770B358F800003F18C4
:10340000384629D0FFF755FD8046002868D000686F
:1034100010B33846FFF757FDF0B10068E0B1D8F8B7
:103420000430E3603846FFF74EFD0021FFF7D8FE79
:1034300020613846FFF73DFD2B68D0F8008096B13B
:103440001B6904220C21284698470646B8B926492C
:103450000A98FDF7CFFE012003B0BDE8F0830123F9
:10346000B2E7A060C2E7DB6804220C212846984737
:1034700006460028EBD02B68D3F80C9002E02B68AE
:10348000D3F810904046FDF7A5FE042201462846D9
:10349000C8470546706008B91449D9E73846FFF7B0
:1034A00008FD306045F8048B4FF00009C8450ADD7F
:1034B0003846FFF708FD4946FFF792FE45F8290018
:1034C00009F10109F2E710213846FDF7E5FE00B1E8
:1034D0003858B060012384F8303066630020BBE7C1
:1034E000BAE700BFF45308000A5908003859080029
:1034F0002DE9F041069C26460D460021C4E9001145
:1035000046F8081F984628461746FFF7E6FC31465E
:103510004246FDF7D3FE064658B939462846FFF71E
:103520000EFF042120602846FFF722FF20B9034B3D
:1035300063603046BDE8F0816060FAE7F45308004C
:1035400010B50446FDF7A8FE231808B1205818440A
:1035500010BD00002DE9F04F87B00E461C46934683
:103560000746FFF7FFFC062100903046FDF794FE6A
:10357000331818B335581D447B68544ACDE90423E9
:103580004FF000090A210098FFF7DAFF0368994518
:1035900080F099804946FFF799FE04218046FDF7A7
:1035A0007BFE68B158F800602B68B868B34209D850
:1035B00047493246FDF71EFE012324E00546DBE7BE
:1035C0000646F1E72B1D03EB860A53F826309A4492
:1035D000024604F1240359465046FEF70FF9B0B1F4
:1035E00000905046BC680AF096F8832898BF394A84
:1035F000009B94BF52F82020374A38490093204658
:10360000FDF7F8FD009B184607B0BDE8F08F626A31
:103610001AB932463249B868CCE792F814A0039040
:10362000BAF1200F4FF00E01404622D1FFF77EFE87
:10363000D8B90026B24606214046FFF799FE082178
:1036400001904046FFF794FE242280460021204648
:103650001DF006F9019BE661C4E90038039B09F1FE
:103660000109C4E9053A28348CE700F1040A066828
:10367000E1E7FFF75BFE50B1BAF1830F98BF154B3E
:10368000B86894BF53F82A20134A164992E7DBF82A
:1036900000305146DB6958469847064650B9BAF1A2
:1036A000830F98BF0B4BB86894BF53F82A200A4A7F
:1036B0000D497FE703AB04AAB9684046B04703460B
:1036C0000028B6D09FE700239DE700BFFC59080003
:1036D0002F580800E0440800C88108005958080025
:1036E00086580800A7580800ED58080070B516461F
:1036F0000446FFF737FC0A21FFF722FF65680168DF
:103700002B6828204143DB6804222846984728B9C3
:103710000449A068FDF76EFD012070BD30600020F7
:10372000FBE700BFAF57080010B50446FDF7B4FD36
:10373000231808B12058184410BD2DE9F041044663
:1037400010461F468846FFF7DCFB06999DF81C5083
:10375000FFF772FD0C2106464046FFF7E5FFA36820
:10376000069307970346324629466068BDE8F04154
:10377000FFF708BE2DE9F04F85B08A469146054611
:10378000FFF7F0FB0390FFF7BCFBD0F80080686800
:103790000C26036806FB08F4DB68042221469847E0
:1037A000074640B914492246A868FDF723FD0120C9
:1037B00005B0BDE8F08F0024444519D00398FFF709
:1037C000A0FB2146FFF738FD0C2183465046FFF74A
:1037D000ABFF06FB047300930246AB68686859466A
:1037E000FFF786FE10B122460449DDE70134E3E726
:1037F000C9F800700020DBE7135708005A5708008B
:103800002DE9F04F97B004461046894617460993B4
:10381000FFF777FB226903686068D31818260693C0
:1038200073430393036803991B6904229847064670
:1038300048B9039AB949A068FDF7DCFC01210846A4
:1038400017B0BDE8F08F3846FFF75BFB03680493C1
:10385000236907931021A36805934846FDF71CFDD3
:1038600009EB0001002841D059F800208B1873D0D3
:103870008A5808924FF0000A03F10408D346089BC7
:103880005B4534D0454604212A6815442846FDF797
:1038900003FD08F104082A1808B12858104417221B
:1038A0009F4904301DF03AFCE8B90C214846FFF767
:1038B0003BFF062182462846FDF7EEFC88B12958D9
:1038C0005046FFF71BFD0421FFF730FD049BC26843
:1038D000934200F1100A06D092490598FDF78AFC40
:1038E000ACE70146ECE70BF1010BC8E78246DDF8D7
:1038F00024B0B146B04600254FF0FF32049B089239
:10390000AB422ED04146C8F804B05846FFF785FABE
:103910000146002893D1089ADBF80000C8E902228A
:1039200058B93846FFF7EDFA2946FFF785FCFFF74F
:10393000DDFA089A80F00101C9B288F81410BAF1D2
:10394000000F0BD05AF82510C8F81010013508F1F7
:1039500018080BF10C0BD1E79A46C8E7C8F81020FD
:10396000F4E74FF0000B4FF0180AD846062138460E
:10397000FFF7FEFC03685B4509D95946FFF746FC93
:103980000AFB00600BF1010BC0F80880EEE74FF076
:10399000000B4FF0180A08213846FFF7E9FC0A210E
:1039A00004903846FFF7CCFD049B026802F1FF3813
:1039B0001A685A4525D959461846FFF727FC0AFBCD
:1039C00000600BF1010BC0F80C80E4E74FF0000A37
:1039D00008215846FFF7CCFC026852450FD95146E2
:1039E000FFF714FC182303FB00608268531C01D00E
:1039F000904501DAC0F808800AF1010AE8E708F109
:103A0000FF38B8F1000F20DB0A213846FFF798FD98
:103A10004146FFF75BFC4FF0000A834606215846FB
:103A2000FFF7A6FC02685245D0D95146FFF7EEFBDE
:103A3000182303FB0060C268511C01D0904501DDD2
:103A4000C0F80C800AF1010AE8E7334600229542EB
:103A500074D0D968481C08D1187D30B100919B689A
:103A600031490598FDF7C6FBE8E601321833EEE769
:103A70001021606800F09CFD0546606803682946D7
:103A80001B6910229847014658B9A168274B01933A
:103A900040F233430093264A264B0846FDF7B8FB15
:103AA000CCE62A460BA805F08BF8D4F808803546FA
:103AB0000027069BBB4268D02B7D13B90137183510
:103AC000F7E710212868FFF74BF92B69591C0246CC
:103AD0000FD1EB680093AB6841460BA805F032F8B4
:103AE00001460028EAD00BA8039105F021F80399BC
:103AF000A5E60193EB680093AB6841460BA805F07F
:103B00007BF8EDE70BA805F076F90B4902462B464A
:103B10003846FDF76FFB0121E5E700BF07550800B8
:103B2000F8530800485508009355080068560800E7
:103B3000EF430800F6550800815608002046FFF7BD
:103B4000F9FA6FF0070202FB0500079A2099182383
:103B50002A4403FB056396464FF0FF3C0127AE4520
:103B600003F1180384D950F8352043F8182C00EBE2
:103B7000C50243F8141C526843F808CC43E90422F8
:103B800003F8047C01350431E9E7606803685B6988
:103B900098471021606800F00BFD05460BA805F062
:103BA0002AF9A842A768ADD8606800F0FFFC039B23
:103BB00080461E4400254FF0FF3A4E4516D099F836
:103BC000143083B139460AAB2A460BA8CDF828A099
:103BD00005F02EF90146002885D10A9BD9F804206A
:103BE00043441360013509F11809E6E70BA805F015
:103BF00002F96369834200D26061606861690368A9
:103C000010229B68984701466DE700BF00B5C1B020
:103C1000134668460A464FF4807100F0EDFA684694
:103C200000F0D4FC034800F0D1FC002041B05DF866
:103C300004FB00BF9B8508004369202B01D18069EC
:103C40007047DBB2832B9ABF024A52F82300024826
:103C5000704700BFE0440800C8810800C3681868C6
:103C60000368DB681847C3681B6953F82100704775
:103C700030B4C468206803685D680B46AC46D4E97C
:103C8000021230BC6047C368DB680C2000FB0130C7
:103C90007047C3681868FFF757BA0EB403B5C36816
:103CA000586803AA036852F8041B01929B6898475E
:103CB00002B05DF804EB03B0704710B5044600682D
:103CC00018B1036861681B699847204610BD000061
:103CD00070B5456804460E4628460821FDF7DCFA13
:103CE0002A18E8B12B58D118D258012A07D00D490B
:103CF000E068FDF77FFA012384F86D3070BD0B1D7D
:103D0000496862630B44236704F17C03E361064B5B
:103D10006362064B2366064B636666640023EBE72B
:103D20000368FFDE3E5408009B3C0100713C01002B
:103D3000873C01002DE9F041069F00250446C0E9BB
:103D40000051C0E902270E465822294610309846F5
:103D50001CF086FD01232046C4F8688084F86C506E
:103D600084F86D30C4E91C55C4E91E58C4E92076B6
:103D7000C4E92255C4E924550799FFF7A9FF204655
:103D8000BDE8F0812DE9F743074600264FF00C0906
:103D90003C6F04212046FDF77FFA2118002850D0FF
:103DA00022588B188A58964246D2043303EB860574
:103DB00053F826301D440E212846FDF76DFA0028E1
:103DC00034D02B5C93B3786F09FB06F801A940440B
:103DD000FFF723F8044680BB06212846FDF75CFA6E
:103DE00030B32B56092B25D10C212846FDF754FA68
:103DF0002B1890B12C581C440A212046FDF74CFA90
:103E00002218F0B12358D118D35843B90E4B0F4A9A
:103E10000F484FF483711BF051F80446ECE74968F2
:103E20007B6F019A53F808001CF01AFD0136AFE7CA
:103E30000146F5E72146F3E70024204603B0BDE83C
:103E4000F0830368FFDE00BF66590800EE600800DB
:103E50007159080070B50D4604460621006FFFF742
:103E600087FA03689D4206D32A461749E068FDF7A2
:103E7000C1F9002070BDADB11449E068FDF7BAF991
:103E8000A66E206F0621FFF773FA2946FFF7BEF9E9
:103E90003368626F1D6861680346AC463046BDE812
:103EA00070406047D4F8901059B9A56EFFF7AEF98D
:103EB0002B68626F1E68616803462846B047C4F8E5
:103EC0009000D4F89000D5E7455F0800705F0800C7
:103ED00070B50D4604460821006FFFF749FA0368E4
:103EE0009D4206D32A461749E068FDF783F9002072
:103EF00070BDADB11449E068FDF77CF9A66E206F86
:103F00000821FFF735FA2946FFF780F93368626F19
:103F10001D6861680346AC463046BDE870406047A6
:103F2000D4F8941059B9A56EFFF770F92B68626F39
:103F30001E68616803462846B047C4F89400D4F868
:103F40009400D5E74960080075600800F8B503687B
:103F50000446B3B10025282600F110070A21206F7E
:103F6000FFF7EEFA0368AB420BD9236806FB053373
:103F70005A6A22B1526812B1196938469047013520
:103F8000ECE72046F8BD00002DE9F34100F1740391
:103F90000093D0E9011203460446806EFFF796F8BD
:103FA000054648B13D49E068FDF724F9012084F851
:103FB0006D0002B0BDE8F081266F636FC4F88830F1
:103FC00004213046FDF768F93218002864D03358D0
:103FD000D3582361C4E91455314BA36428270A211F
:103FE000206FFFF7ADFA0368AB4212D9266807FBD2
:103FF0000566736A71695A691B68202A0CBFD6E985
:10400000061200221BB104F11000984730610135FF
:10401000E5E7244B23650025282704F110080A2131
:10402000206FFFF78DFA0368AB421BD9216807FBAD
:1040300005114E6AB3687BB140469847014658B1B6
:104040003046FFF7F9FD2B46009102461649E0681D
:10405000FDF7D0F80120ACE72946A06EFFF7A2F8E3
:104060000135DCE70023A3642365104B6365626FB1
:104070006168A06E04F17803FEF790FF002898D1E4
:10408000A36FC4F88C302046FFF77CFE002890D147
:10409000012384F86C308CE70368FFDEEC5E0800D7
:1040A0005D3C0100933C01000F5F0800673C01008C
:1040B0002DE9F04F90F86D3087B0044643B1314997
:1040C000C068FDF797F80125284607B0BDE8F08FD6
:1040D00090F86C30002B46D000264FF0280A4FF0A5
:1040E00000084FF000090A21206FFFF729FA036842
:1040F0009E4245D225680AFB06556F6AFB68002B75
:104100003CD03846FFF798FDD4F844B0CDF810B055
:10411000002301460593BBF1000F0AD0DBF8002015
:10412000CDE90289CDE90063584693680222984799
:1041300005902946FB6804F1100098470546A06EDB
:1041400003689B689847012D13D13846FFF774FD2B
:104150000095024633460C49E068FDF74BF804A889
:10416000FFF7ABFDB0E7FFF70FFF05460028B3D020
:10417000AAE7002DF3D104A8FFF79FFD0136B2E7AF
:104180000025A1E7E85F08001560080030B5044687
:10419000234601341D78002DFAD101390844013A33
:1041A00012F8011F21B1834202D203F8011BF7E785
:1041B00000221A70184630BD30B503460C46B3FBDA
:1041C000F2F502FB1530C3B2092894BF30335733E0
:1041D0002046DBB200F8013B2B464DB96570A14289
:1041E00008D20B78227801F8012B04F80139F6E7A0
:1041F0000446E4E730BD00002DE9F04F95B090464D
:10420000009003911E4601F1FF390025009A98F8AD
:10421000003054198BB34D452FDA252B08F10102DC
:1042200040F0188198F80130662B5AD006D8252B1B
:1042300000F00E81642B1CD09046E7E7752B32D03E
:10424000782B39D0732BF7D1039A3368501B311D6B
:10425000013B04EB5000009A8442A4EB020500F0FD
:10426000FC8013F8012F002A00F0F78004F8012BDE
:10427000F1E7A9EB05030A2B01DC681C22E030689A
:104280000028B8BF2D2306F10407BDBF611C2370B1
:10429000404221460A22FFF78FFF001B054408F128
:1042A00002023E46C8E7A9EB05030A2BE5DD371DF0
:1042B0000A2221463068EEE7A9EB0502092A05F13A
:1042C000010004DC0023237015B0BDE8F08F4FF02F
:1042D00030022270009A023513545419371D1022EF
:1042E000E7E7A9EB050307EE903AF8EEE77AB2EEBE
:1042F0000C7AF4EEC77AF1EE10FABED4F31D23F077
:104300000703D3E9000103F1080618F02DFBC0F301
:10431000C7530028A3F17F0A01932346BCBF2D2277
:1043200003F8012B0022BAF1800F04F12F0BC0F328
:10433000160E1A7010D1ABEB0301BEF1000F09D1BC
:10434000484A1846FFF722FF07463C1B254408F160
:10435000020271E7444AF4E7444A04AF5168106826
:10436000BC46ACE80300424908328A426746F5D1B0
:1043700010681279CCF800008CF8042070460022F6
:1043800004A9895601322EFA01F10D2A0844F7D109
:1043900031221A702E225A709F1C00229A70ABEBA9
:1043A0000702072A0292D0DD3A4608334FF0300167
:1043B00002F8011F9342F9D10A2208A9FFF7FCFE77
:1043C00008AA02993846FFF7E1FEC31B4FF03002FE
:1043D000D3F10701027012D00246A0EB020C9C45FB
:1043E00008DA12F801CD02F801C04FF0300C82F863
:1043F00000C0F2E723EAE373C3F10703184410F89F
:10440000012C302A00F1FF3301D1BB421ED800231A
:10441000ABEB00010370174AFFF7B8FEBAF1000FCB
:10442000BFBF2D238DF82030019BC3F17F0A0746C3
:10443000ABEB000BB4BF0DF1210108A90A225046D5
:10444000FFF7BAFE08AA594638467BE71846D6E772
:1044500008F1020201352370EEE608F102020E4671
:10446000EAE600BFD3610800D7610800C661080012
:10447000CE610800DB610800034610B553F8044B19
:1044800000220120944204DD53F8041B013248430A
:10449000F8E710BD704703698361704710B51C21B0
:1044A000044612F003F9204610BD000037B505465A
:1044B0000C4680691146FEF749FC6B691B1AA34242
:1044C00009D2E21A0092054968682246FCF792FE7A
:1044D000002003B030BD0444AC61FAE7DF6108009E
:1044E00037B5044640690D46401B1146FEF734FCC3
:1044F000236983420AD91B1A00932A46EB1A0449FE
:104500006068FCF777FE002003B030BD6061FBE718
:104510002862080037B583690D460169994204464F
:1045200006D00E494068FCF765FE012003B030BD9F
:1045300011468068FEF70AFC63691B1A9D4207D981
:10454000EA1A0092064960682A46FCF753FEECE737
:1045500028442061A0610020E8E700BF71620800E4
:10456000C662080010B50A4488B00F4C0791CDE927
:104570000312CDE905120422CDE901401C210DEB07
:104580000200FFF7ADFF60B1029B4360039B8360B5
:10459000049BC360059B0361069B4361079B04600A
:1045A000836108B010BD00BF1063080080687047C9
:1045B00070B5044680690E46FEF7C8FB31460546D5
:1045C0006069FEF7C9FB401B70BD000038B5084CA0
:1045D0002378054633B94FF4165106480AF0B6F968
:1045E0000123237029460348BDE838400BF0C5BCC1
:1045F00080850220D08B02200368052B10B504466D
:1046000003DD406808B112F053F8204610BD0000E9
:1046100022EAE273002A00FA03F0D4BF52420022D9
:1046200088422DE9304832D101F100435C425C41BF
:1046300080FB0101002871F100031B4BA8BF4FF064
:1046400080436CBB10EB030B41EBE37CBBF1000F31
:104650007CF1000306DA6FF0004400251BEB040B2D
:104660004CEB050C4FEADB7343EA4C031F2A10DCCA
:10467000012191400139481001EA030400EBD37095
:1046800013418442D4BF1846581CBDE8308800242A
:10469000CEE7064B064A074840F267111AF00EFCB7
:1046A0006FF00043E2E700BF010000C0286308008C
:1046B000AC6308003763080070B5044611B90160A7
:1046C000204670BD8D682B680360052B4FEA83067A
:1046D00008DD09488342D4BF30464FF0FF3011F067
:1046E000CFFF60602368052BCCBF6068201D324679
:1046F000291D1BF0B7FFE3E7FEFFFF1F0368052B33
:10470000C7BF436853F8210000EB81004068704741
:1047100001EB8202436D516818470968FFF7F8BF43
:1047200070B5044609B14D681DB9002323602046C9
:1047300070BD2B680360052B4FEA830608DD09482E
:104740008342D4BF30464FF0FF3011F099FF6060D4
:104750002368052BCCBF6068201D3246291D1BF045
:1047600081FFE4E7FEFFFF1F10B50468052CCBBFF7
:10477000406800EB810050F821104168106805285E
:10478000CBBF526802EB830252F823005068884284
:10479000A8BF084610BD30B50568052DCCBF4368DD
:1047A000031D00220120AA4207DA8A4214BF53F8EF
:1047B0002240012460430132F5E730BD884230B524
:1047C0001DD100F100435C425C4180FB0123002AC3
:1047D00073F100010C49A8BF4FF080418CB9541807
:1047E00043EBE175002C75F1000304DA6FF0004033
:1047F000002124184D41E00F40EA450030BD00245F
:10480000E3E76FF00040F9E7010000C0002908B5B8
:1048100006DA0D4B0D4A4FF4B3710D481AF04EFBFA
:104820001F2904DD0B4B094A40F26711F5E701230C
:104830008B40013B03EA00025B1003EBD07308419D
:104840009A42C8BF013008BD06640800146408001D
:10485000376308002863080008B50021FFF7D6FF7A
:1048600008BD00006FF000422DE9F84F14184FF01A
:10487000000343EBE0756B1C05BFB4F1FF3F264618
:1048800001262F4618BF0027A4197D41EB0FE01821
:1048900045F100014F104FEA30064FF05A30FFF754
:1048A000DBFF04463D48DFF8F890FFF7D5FF0146EF
:1048B0003046FFF783FFB046044403256FF00046FF
:1048C000002721464046FFF779FFC0F100512046FE
:1048D000FFF774FFB0F1005F51DA48454FF0FF3148
:1048E0004FF0000CA8BF00214FEAE07B82004FEAA6
:1048F0008B0343EA9073B2F1004F73F1FF3042DB58
:10490000964277EB0300B8BF6FF000426FEA0C03EA
:104910001A402CF0004CCB4382EA0C021A4001F002
:1049200000414A40013D1444CBD1B4F1804F2DDA0F
:10493000B4F1404F4FF0FF302946C8BF0020E317C5
:10494000261943EB0307B6F1004F77F1FF332246F8
:1049500020DB6FF000440025B44275EB0703ACBFC9
:1049600032466FF00042CB431A4021F00041C3436E
:104970004A401A4000F000405040BDE8F88F4FF028
:10498000FF3C0021B0E74FF00042BFE74FF0FF319E
:104990002846D4E74FF00042E5E700BFC4C3C3C3D5
:1049A000010000E008B5FFF709FF08BD2DE9F0415F
:1049B00004461448FFF750FF06461348FFF74CFF24
:1049C00004F18054804621462046FFF7EBFF214644
:1049D0000546FFF7E7FF294607462846FFF7E2FFAF
:1049E0000221FFF713FF41463844FFF7DBFF0121A7
:1049F0002844FFF70BFF21183046FFF7D3FF304460
:104A0000BDE8F08194A8F570ABAAAA2A0A68436DA4
:104A100073B50E465168044698477268636D5168D5
:104A200005462046984701A90646287AFEF79EF9D2
:104A3000044650B96868FFF71FFD019B2A68584378
:104A4000336801909A4203D10024204602B070BD21
:104A50002046019B8342F7D92B681A5C33681A54AD
:104A60000130F6E72DE9F043002285B004460F46F9
:104A7000FDF750FF064658B9454B6569009323235F
:104A8000444A45492046A847012005B0BDE8F083C7
:104A9000002239462046FDF74EFF054620B93F4B20
:104AA000009365692523EBE7D6F808C05CF8049B02
:104AB0004FF0000E01220023F1450CDD5CF8048B61
:104AC0004046C117514308FB0311A2FB08230B44C6
:104AD0000EF1010EF0E73B68A9681B68012B05D1B8
:104AE0000B68012B02D14B6803B90B608C464FF069
:104AF000FF305CF8048B01230027B8451ADD5CF811
:104B000004EBBEF1FF3F0FD1B0F1FF3F10D0244BBB
:104B10000193CDE9020E234B656900933A231D4AA8
:104B200021492046A847AFE70EFB03F30137E4E72E
:104B30003846FBE7471C1CBF01EB800192FBF3F7F3
:104B4000307818BF4F60297818BF7B43814212D05C
:104B50006669FCF743FB07462878FCF73FFB134BDD
:104B60000193134B0093CDE902704523094A114983
:104B70002046B04788E79A4208D0CDE902230E4B81
:104B800001930E4B009365694623C8E700207CE73C
:104B90000265080090640800EF43080013650800F0
:104BA00025650800286508009E5208004E6508002B
:104BB0005B65080034650800676508007B650800D0
:104BC0000B68F0B51B68013B012B85B005460C4610
:104BD00009D9194B00934469184A19494B23A04736
:104BE000012005B0F0BD4B681E68012E0CD00124D9
:104BF000CDE90264134B0193134B009345690F4AAF
:104C000012494C23A847EBE7FFF72CFF0028E8D018
:104C1000214628466F69FFF725FF0023CDE90203EF
:104C20000B4B01930B4B009328464D23034A074936
:104C3000B8473046D5E700BF8E650800906408008D
:104C4000EF430800808B0800BB6508009E520800F7
:104C5000CC650800D665080070B5054D06460446CB
:104C60000FCD0FC495E80F0084E80F00304670BDEB
:104C7000706408002DE9F84340F07F440546600168
:104C8000FFF794FE81464248FFF7E6FD014648469D
:104C9000641BFFF787FEC4F30067C7F1000800EA52
:104CA00008083C48FFF7D8FD013F07EA090788EAF2
:104CB000070701463846FFF775FEC4F34068C8F1A0
:104CC000000900EA09093448FFF7C6FD08F1FF387A
:104CD00008EA070889EA080801464046FFF762FE2D
:104CE000C4F38069C9F1000707402C48FFF7B4FD01
:104CF00009F1FF3909EA080987EA09090146484626
:104D0000FFF750FEC4F3C067C7F1000800EA0808C7
:104D10002348FFF7A1FD013F07EA090788EA0707D3
:104D200001463846FFF73EFEC4F30076C6F10008A0
:104D300000EA080006F1FF3808EA070880EA0808D8
:104D40001848FFF789FD01464046FFF72BFEC4F3E4
:104D500040777E42013F064007EA08004640F220C5
:104D6000FFF77AFD01463046FFF71CFEC4F380745E
:104D700063421840013CB5FA85F334405B09444076
:104D8000581E5B42204023F000435840BDE8F883A2
:104D90007BBEAF63F2CBA24D6CAC162FA4AA52110E
:104DA000B72A580211FE0A00012803D0022806D0B3
:104DB000002070471944013991FBF3F070470098C7
:104DC000013A504319440130091AF5E73821836B41
:104DD000184700002DE9F04F2DED028B95B01D46D0
:104DE000B0F90A300393B0F90C300493B0F90E30E7
:104DF0000593B0F910300693B0F90230DDF88C80DD
:104E00000893B0F9043009930C4600231946129216
:104E100090ED0C8AD0ED0D8A42462046FFF7A4FCA7
:104E2000032319460A902A462046FFF79DFC0323D8
:104E300042460B9000212846FFF796FC012107907F
:104E40002046FFF75BFC02210C902046FFF756FC42
:104E500001210D902846FFF751FC02210E902846B3
:104E6000FFF74CFC01210F904046FFF747FC022161
:104E700010904046FFF742FCDFED546A11904FF06E
:104E8000000E0A9B9E4580F29C80099B4FF0000B10
:104E9000C3F10009109B9B4580F29080089B5B4208
:104EA00002934FF0000A119B9A4580F28280002203
:104EB000079B934276DD0023DFED447A0193494658
:104EC0000E9B0198984241DA02984FF0000C0F9B1C
:104ED0009C4535DA00282EDB0D9B83422BDD002913
:104EE00029DB0C9B8B4226DD00260B9B9E4222DA9F
:104EF000A368E76803FB0E1307FB0303276907FB9F
:104F00000363129F07EB83031393019FAB6803FBBB
:104F10000273EF6807FB03C32F6907FB0363209F3E
:104F200007EB8303139F93ED007A97ED006A013638
:104F3000E6EE077AD9E7059B0CF1010C1844C6E7A9
:104F4000019B01330193069B1944B9E7229B33B3BC
:104F500003EB820393ED007AD8F80830D8F80C10F0
:104F600077EE877A03FB0EB3F4EE487A01FB03A3D6
:104F7000F1EE10FAD8F8101048BFF0EE487A01FBB5
:104F80000321F4EE678A249BF1EE10FA03EB810112
:104F900048BFF0EE687AC1ED007A013288E7B0EEE2
:104FA000667AD9E7DDE9023213440AF1010A029375
:104FB00079E7049B0BF1010B99446BE70EF1010EAD
:104FC0005FE715B0BDEC028BBDE8F08F000000007C
:104FD0002DE9F04F9DB01C46B0F90A300493B0F9AA
:104FE0000C300593B0F90E300693B0F910300793EA
:104FF000B0F902300B93B0F904300C9343690D9370
:1050000083690E93C3690F93036A1093436A1193E4
:10501000836ADDF8A4900893C36A09938846002345
:1050200019461A9240464A46FFF79EFB032319464B
:10503000129022464046FFF797FB03234A461390FF
:1050400000212046FFF790FB01210A904046FFF720
:1050500055FB022114904046FFF750FB01211590AB
:105060002046FFF74BFB022116902046FFF746FB38
:10507000012117904846FFF741FB0221189048464E
:10508000FFF73CFB4FF0000A1990129B9A4580F203
:1050900099800C9B5B42029300230093009B189A1B
:1050A000934280F28C800B9B5B4203934FF0000B8A
:1050B000199B9B457BDA00250A9BAB4270DD0020E3
:1050C000029A0190169B0199994245DA03994FF093
:1050D000000C179B9C4539DA002932DB159B8B426B
:1050E0002FDD002A2DDB149B93422ADD0026139B23
:1050F0009E4226DA019FA36803FB0573E76807FB5E
:1051000003C32769BE46269F0EFB0373D8F80C70B5
:1051100013F806E00E9B73441B93D8F8083003FB8A
:105120000A2307FB0313D8F81070BE461A9F0EFB24
:1051300003730D9F9B5D3B441B9F013603FB0700E0
:10514000D5E7069B0CF1010C1944C2E7019B013322
:105150000193079B1A44B5E7289B13B153F82530F8
:105160001844DDE91012FFF753FAD9F80830009A15
:105170002A9903FB0A23D9F80C2002FB03B3D9F8C0
:10518000102002FB03130F9A1044089A9042B8BFF4
:105190001046099A9042A8BF1046585501358BE732
:1051A000DDE9033213440BF1010B039380E7009B0D
:1051B000059A01330093029B134402936EE70AF1B0
:1051C000010A62E71DB0BDE8F08F2DE9F04F9BB0FA
:1051D0001D4643690B93B0F90A300493B0F90C30C3
:1051E0000593B0F90E300693B0F910300793B0F97B
:1051F00002300C93B0F904300D93C3690E93836AA7
:10520000DDF8A4800893C36A09930023CDE917123F
:10521000284619464246FFF7A7FADDF894900F900A
:10522000032319464A462846FFF79EFA03234246BF
:10523000109000214846FFF797FA01210A9028466E
:10524000FFF75CFA022111902846FFF757FA012177
:1052500012904846FFF752FA022113904846FFF792
:105260004DFA012114904046FFF748FA02211590AB
:105270004046FFF743FA4FF0000A16900F9B9A45FD
:1052800080F29B800D9B5B42029300230093009B66
:10529000159A934280F28E800C9B5B4203934FF0F1
:1052A000000B169B9B457DDA00240A9BA34272DD0E
:1052B0000020029A0190139B0199994243DA0399C5
:1052C0004FF0000C149B9C4537DA002930DB129B11
:1052D0008B422DDD002A2BDB119B934228DD00261B
:1052E000109B9E4224DAAB68EF6803FB0A2307FB9E
:1052F00003132F69BE46249F0EFB0373019F13F90E
:1053000006E00B9B73441993D9F8083003FB047330
:10531000D9F80C7007FB03C3D9F81070BE46269F5E
:105320000EFB0373199F9B57013603FB0700D7E75A
:10533000069B0CF1010C1944C4E7019B0133019356
:10534000079B1A44B7E7289B13B153F8243018443D
:10535000189B53F82420179B53F82410FFF758F993
:10536000D8F80830009A2A9903FB0A23D8F80C20B1
:1053700002FB03B3D8F8102002FB03130E9A10446B
:10538000089A9042B8BF1046099A9042A8BF1046AA
:105390001855013489E7DDE9033213440BF1010BA1
:1053A00003937EE7009B059A01330093029B13440D
:1053B00002936CE70AF1010A60E71BB0BDE8F08FC9
:1053C0002DE9F04F1646CBB0814648690D69569CD1
:1053D00039901F461369926908920128F26A09926E
:1053E000D1E901CE3895C3F10003D6E900B1326BA3
:1053F000D6E9098A40F09180012D40F08E803293E9
:10540000089B3393099BCDE936B120A85499CDE987
:1054100034CECDE93A32CDE90A8AFFF781F939462F
:1054200026A8FFF77DF921462CA8FFF779F95599B1
:105430003CA8FFF775F9002319462CAA26A8FFF708
:1054400093F903238246194620AA26A8FFF78CF970
:1054500003232CAA8346002120A8FFF785F92946BB
:10546000804626A8CDF838A0FFF748F902210F9012
:1054700026A8FFF743F92946CDE9100B20A8CDF85F
:105480004880FFF73BF90221139020A8FFF736F977
:105490002946CDE9140B2CA8CDE91655CDE91858AD
:1054A000CDF868A0FFF72AF902211B902CA8FFF77E
:1054B00025F9716B00239942CDE91C08CDE90C3325
:1054C00004DBD9F84430484698470C90549A5599D3
:1054D0003B681268096804B1246806941AA8CDE9EB
:1054E000041016A9CDE9022112AA32A9CDE9003291
:1054F0000CA80EAB0AAA03F07EFE3CA8FFF77CF8CE
:105500002CA8FFF779F826A8FFF776F820A8FFF770
:1055100073F800204BB0BDE8F08F4193089B439394
:10552000ADF80001099BADF8FE50ADF8F4102CA8C1
:10553000394626ADADF8FCE0ADF8FAC04792469387
:10554000ADF8F2B0FFF7ECF85499D7F80090284680
:10555000FFF7E6F820AE549B5599D3F800B03046DB
:10556000FFF7DEF8559B1AAF1B68089321463846B3
:10557000FFF7D6F8089B04B12468CDF80090524696
:105580004146CDE903633CA82CABCDE90574CDE9D8
:10559000015BFFF71AFE3846FFF72EF83046FFF79B
:1055A0002BF82846FFF728F82CA8B0E72DE9F04F94
:1055B0000A684D69436D8A46B5B0516804469847FC
:1055C000DAF80020636D9168064620469847DAF8BD
:1055D00000201368032B81461ED1636DD1682046DD
:1055E00098478046DAF80420636D51682046984752
:1055F000337A027A9342074611D0CDE90232874BC3
:105600000193874B00936569864A87494FF4D373AA
:105610002046A847012098E04FF00008E2E799F8FB
:105620000800984204D06369804920469847F1E712
:105630000328DAF8102000F08B8009287CD001289C
:1056400040F0E3802B7B012B6ED0032B71D09FEDBC
:10565000787ADFED786A022BF7EE007A18BFF0EE69
:10566000477ABFEE007A18BFB0EE667A2B78012B2E
:1056700003D0022B0CBF022300238DF8983013684F
:10568000ADF89A305368ADF89C306B68ADF8A23035
:10569000AB68ADF8A4302B69ADF8A63031466B6924
:1056A000ADF8A83020A88DED327ACDED337A14AD67
:1056B000FFF736F849461AA8D6F800A0FFF730F8E9
:1056C0000EAE41462846D9F80090FFF729F8394632
:1056D0003046D8F80080FFF723F8D7F800B008AFBD
:1056E000002138460024FFF71BF8CDE90574CDE909
:1056F000036BCDE90158CDF800901AAB524620A9B2
:1057000026A8FFF767FB3846FEF776FF3046FEF720
:1057100073FF2846FEF770FF1AA8FEF76DFF20A85A
:10572000FEF76AFF204610E0DFED417A9FED427AF6
:105730009CE7F1EE087AF9E7CDE90187CDF8009012
:10574000334629462046FFF73BFE35B0BDE8F08FD3
:1057500028781169536994690128C1F10001C3F1E6
:10576000000303D002280CBF022000208DF898000F
:105770001068ADF89A005068ADF89C006868ADF804
:10578000A200A868ADF8A4002869ADF8A600686971
:10579000ADF8A800CDE92B13D3692E93136A2D948D
:1057A0005B422F93D36A30933146136B319320A819
:1057B000FEF7B6FF14AD49461AA8D6F800A0FEF7CA
:1057C000AFFF0EAE41462846D9F80090FEF7A8FF7D
:1057D00039463046D8F80080FEF7A2FFD7F800B06F
:1057E00008AF384600210024FEF79AFFCDE90644B1
:1057F000CDE904B7CDE90286CDE900951AAB524652
:1058000020A926A8FFF7E4FB7DE76569FBF7E6FC26
:10581000337A0A4902462046A847FBE64E6508004F
:105820005B650800146608009E5208008C6608003C
:10583000FFFF7F7FFFFF7FFF00000000356708004C
:105840002DE9F04F0022B9B005460F46D1E90446D4
:10585000FDF760F80122804639462846FDF75AF8E0
:1058600000220F9039462846FDF765F841468246EA
:1058700022A8FEF721FF514628A8FEF71DFF0023AE
:10588000194628AA22A8FEF76FFFD8F8083016900C
:105890009A68DB6817928346032122A81893FEF7C3
:1058A0002DFF032119900B9028A8FEF727FF0F9BCF
:1058B0001A90D3F808900B9BD9F808201B92D9F8BE
:1058C0000C201C92CDE91D3BDAF8083003219A68C0
:1058D000DB681F9228A82093FEF710FFD9F8043048
:1058E00021904FEA83094946AB6B28469847AB6B3A
:1058F00060624946284698473B68A0621B68023BA5
:10590000012B12D9704B00936C69704A7049572370
:105910002846A047012728A8FEF76EFE22A8FEF71A
:105920006BFE384639B0BDE8F08F7B681B680B937F
:10593000012B0DD00127CDE90237664B0193664B51
:1059400000936C69614A654958232846A047E2E7FD
:10595000189B0C93179B0D931C9B0E9398F800308B
:105960001493B3681093736896F800B01193736939
:10597000129333690E9A0C99139300935846119B16
:10598000DDF86C90FFF710FA129B0D9915904A46BE
:1059900000935846109BFFF707FA129B139A119930
:1059A00009F1FF3903FB09F9109B09F101090138DD
:1059B00003FB00900D9BC01A0E9B013B53435A1CE6
:1059C000159B013B01FB03230C9A9B1A23EAE3730B
:1059D0005A1020EAE070226003F00103421000F048
:1059E00001006260A360E060149B012B2ED10F9A2E
:1059F00098F800101269D8F8103062610929DAF8B5
:105A000010202361A2615AD15B42CDE92E32B368E6
:105A10003193736830937369359333693493636852
:105A2000339323683293E36A3693236B379316A933
:105A30001EAB1AAA2EA803F03AFC011E3FDD2B6C08
:105A400004F1340228469847074664E739460022A5
:105A50002846FCF75FFF394683460B9A2846FCF739
:105A600059FF3946814602222846FCF775FF394620
:105A70000B9000222846FCF75EFFD9F808200B9B0C
:105A800052680892A26A0792626A069204F1300292
:105A9000059204F12C02049204F12002039204F115
:105AA0001C02029206F10C02CDE9000259464A4658
:105AB0002846FDF745F80746002898D02BE74FF019
:105AC000FF336363002726E7516708001466080068
:105AD000EF430800808B0800756708009E5208009D
